32301010101019480001HEADLIGHT ASSEMBLY       01000005500000000000000000000000000
10101323001019480008BENZ ENGINE              22550050360000000000000000000000000
10101323001019480007WHEEL ASSEMBLY           00450135550000000000000000000000000
10101323009019480006LIGHT ASSEMBLY           01250125550000000000000000000000000
10101323010019480003FRONT DOOR               00250105550000000000000000000000000
10101323114019480002REAR DOOR                00350105550000000000000000000000000
10101323114019480004MAIN CHASSIS             00050905340000000000000000000000000
10101323114019480005EXHAUST PIPE             00450305580000000000000000000000000
10101323220019480002LEATHER SEATS            00350105550000000000000000000000000
10101323220019480002SUNROOF                  00350105550000000000000000000000000
10102332227029480002REAR DOOR                00350105550000000000000000000000000
10102332227029480005EXHAUST PIPE             00050205580000000000000000000000000
10103333301019480008BENZ ENGINE              00001010000000000000000000000000000
10103333401029480007WHEEL ASSEMBLY           00250105550000000000000000000000000
10104411101029480006LIGHT ASSEMBLY           00250105550000000000000000000000000
